{
  "_format": "hh-sol-artifact-1",
  "contractName": "HacksmithContract",
  "sourceName": "contracts/HacksmithContract.sol",
  "abi": [
    {
      "inputs": [],
      "stateMutability": "nonpayable",
      "type": "constructor"
    },
    {
      "anonymous": false,
      "inputs": [
        {
          "indexed": true,
          "internalType": "address",
          "name": "owner",
          "type": "address"
        },
        {
          "indexed": true,
          "internalType": "address",
          "name": "approved",
          "type": "address"
        },
        {
          "indexed": true,
          "internalType": "uint256",
          "name": "tokenId",
          "type": "uint256"
        }
      ],
      "name": "Approval",
      "type": "event"
    },
    {
      "anonymous": false,
      "inputs": [
        {
          "indexed": true,
          "internalType": "address",
          "name": "owner",
          "type": "address"
        },
        {
          "indexed": true,
          "internalType": "address",
          "name": "operator",
          "type": "address"
        },
        {
          "indexed": false,
          "internalType": "bool",
          "name": "approved",
          "type": "bool"
        }
      ],
      "name": "ApprovalForAll",
      "type": "event"
    },
    {
      "anonymous": false,
      "inputs": [
        {
          "indexed": true,
          "internalType": "address",
          "name": "previousOwner",
          "type": "address"
        },
        {
          "indexed": true,
          "internalType": "address",
          "name": "newOwner",
          "type": "address"
        }
      ],
      "name": "OwnershipTransferred",
      "type": "event"
    },
    {
      "anonymous": false,
      "inputs": [
        {
          "indexed": true,
          "internalType": "address",
          "name": "from",
          "type": "address"
        },
        {
          "indexed": true,
          "internalType": "address",
          "name": "to",
          "type": "address"
        },
        {
          "indexed": true,
          "internalType": "uint256",
          "name": "tokenId",
          "type": "uint256"
        }
      ],
      "name": "Transfer",
      "type": "event"
    },
    {
      "inputs": [],
      "name": "MINT_PRICE",
      "outputs": [
        {
          "internalType": "uint256",
          "name": "",
          "type": "uint256"
        }
      ],
      "stateMutability": "view",
      "type": "function"
    },
    {
      "inputs": [],
      "name": "TOTAL_SUPPLY",
      "outputs": [
        {
          "internalType": "uint256",
          "name": "",
          "type": "uint256"
        }
      ],
      "stateMutability": "view",
      "type": "function"
    },
    {
      "inputs": [
        {
          "internalType": "address",
          "name": "to",
          "type": "address"
        },
        {
          "internalType": "uint256",
          "name": "tokenId",
          "type": "uint256"
        }
      ],
      "name": "approve",
      "outputs": [],
      "stateMutability": "nonpayable",
      "type": "function"
    },
    {
      "inputs": [
        {
          "internalType": "address",
          "name": "owner",
          "type": "address"
        }
      ],
      "name": "balanceOf",
      "outputs": [
        {
          "internalType": "uint256",
          "name": "",
          "type": "uint256"
        }
      ],
      "stateMutability": "view",
      "type": "function"
    },
    {
      "inputs": [],
      "name": "baseTokenURI",
      "outputs": [
        {
          "internalType": "string",
          "name": "",
          "type": "string"
        }
      ],
      "stateMutability": "view",
      "type": "function"
    },
    {
      "inputs": [
        {
          "internalType": "uint256",
          "name": "tokenId",
          "type": "uint256"
        }
      ],
      "name": "getApproved",
      "outputs": [
        {
          "internalType": "address",
          "name": "",
          "type": "address"
        }
      ],
      "stateMutability": "view",
      "type": "function"
    },
    {
      "inputs": [
        {
          "internalType": "address",
          "name": "owner",
          "type": "address"
        },
        {
          "internalType": "address",
          "name": "operator",
          "type": "address"
        }
      ],
      "name": "isApprovedForAll",
      "outputs": [
        {
          "internalType": "bool",
          "name": "",
          "type": "bool"
        }
      ],
      "stateMutability": "view",
      "type": "function"
    },
    {
      "inputs": [
        {
          "internalType": "address",
          "name": "recipient",
          "type": "address"
        }
      ],
      "name": "mintTo",
      "outputs": [
        {
          "internalType": "uint256",
          "name": "",
          "type": "uint256"
        }
      ],
      "stateMutability": "payable",
      "type": "function"
    },
    {
      "inputs": [],
      "name": "name",
      "outputs": [
        {
          "internalType": "string",
          "name": "",
          "type": "string"
        }
      ],
      "stateMutability": "view",
      "type": "function"
    },
    {
      "inputs": [],
      "name": "owner",
      "outputs": [
        {
          "internalType": "address",
          "name": "",
          "type": "address"
        }
      ],
      "stateMutability": "view",
      "type": "function"
    },
    {
      "inputs": [
        {
          "internalType": "uint256",
          "name": "tokenId",
          "type": "uint256"
        }
      ],
      "name": "ownerOf",
      "outputs": [
        {
          "internalType": "address",
          "name": "",
          "type": "address"
        }
      ],
      "stateMutability": "view",
      "type": "function"
    },
    {
      "inputs": [
        {
          "internalType": "address",
          "name": "dest",
          "type": "address"
        }
      ],
      "name": "payments",
      "outputs": [
        {
          "internalType": "uint256",
          "name": "",
          "type": "uint256"
        }
      ],
      "stateMutability": "view",
      "type": "function"
    },
    {
      "inputs": [],
      "name": "renounceOwnership",
      "outputs": [],
      "stateMutability": "nonpayable",
      "type": "function"
    },
    {
      "inputs": [
        {
          "internalType": "address",
          "name": "from",
          "type": "address"
        },
        {
          "internalType": "address",
          "name": "to",
          "type": "address"
        },
        {
          "internalType": "uint256",
          "name": "tokenId",
          "type": "uint256"
        }
      ],
      "name": "safeTransferFrom",
      "outputs": [],
      "stateMutability": "nonpayable",
      "type": "function"
    },
    {
      "inputs": [
        {
          "internalType": "address",
          "name": "from",
          "type": "address"
        },
        {
          "internalType": "address",
          "name": "to",
          "type": "address"
        },
        {
          "internalType": "uint256",
          "name": "tokenId",
          "type": "uint256"
        },
        {
          "internalType": "bytes",
          "name": "_data",
          "type": "bytes"
        }
      ],
      "name": "safeTransferFrom",
      "outputs": [],
      "stateMutability": "nonpayable",
      "type": "function"
    },
    {
      "inputs": [
        {
          "internalType": "address",
          "name": "operator",
          "type": "address"
        },
        {
          "internalType": "bool",
          "name": "approved",
          "type": "bool"
        }
      ],
      "name": "setApprovalForAll",
      "outputs": [],
      "stateMutability": "nonpayable",
      "type": "function"
    },
    {
      "inputs": [
        {
          "internalType": "string",
          "name": "_baseTokenURI",
          "type": "string"
        }
      ],
      "name": "setBaseTokenURI",
      "outputs": [],
      "stateMutability": "nonpayable",
      "type": "function"
    },
    {
      "inputs": [
        {
          "internalType": "bytes4",
          "name": "interfaceId",
          "type": "bytes4"
        }
      ],
      "name": "supportsInterface",
      "outputs": [
        {
          "internalType": "bool",
          "name": "",
          "type": "bool"
        }
      ],
      "stateMutability": "view",
      "type": "function"
    },
    {
      "inputs": [],
      "name": "symbol",
      "outputs": [
        {
          "internalType": "string",
          "name": "",
          "type": "string"
        }
      ],
      "stateMutability": "view",
      "type": "function"
    },
    {
      "inputs": [
        {
          "internalType": "uint256",
          "name": "tokenId",
          "type": "uint256"
        }
      ],
      "name": "tokenURI",
      "outputs": [
        {
          "internalType": "string",
          "name": "",
          "type": "string"
        }
      ],
      "stateMutability": "view",
      "type": "function"
    },
    {
      "inputs": [
        {
          "internalType": "address",
          "name": "from",
          "type": "address"
        },
        {
          "internalType": "address",
          "name": "to",
          "type": "address"
        },
        {
          "internalType": "uint256",
          "name": "tokenId",
          "type": "uint256"
        }
      ],
      "name": "transferFrom",
      "outputs": [],
      "stateMutability": "nonpayable",
      "type": "function"
    },
    {
      "inputs": [
        {
          "internalType": "address",
          "name": "newOwner",
          "type": "address"
        }
      ],
      "name": "transferOwnership",
      "outputs": [],
      "stateMutability": "nonpayable",
      "type": "function"
    },
    {
      "inputs": [
        {
          "internalType": "address payable",
          "name": "payee",
          "type": "address"
        }
      ],
      "name": "withdrawPayments",
      "outputs": [],
      "stateMutability": "nonpayable",
      "type": "function"
    }
  ],
  "bytecode": "0x60a06040523480156200001157600080fd5b506040518060400160405280600d81526020017f546865204861636b736d697468000000000000000000000000000000000000008152506040518060400160405280600981526020017f4841434b534d495448000000000000000000000000000000000000000000000081525081600090805190602001906200009692919062000230565b508060019080519060200190620000af92919062000230565b505050604051620000c090620002c1565b604051809103906000f080158015620000dd573d6000803e3d6000fd5b5073ffffffffffffffffffffffffffffffffffffffff1660808173ffffffffffffffffffffffffffffffffffffffff1660601b8152505062000134620001286200016260201b60201c565b6200016a60201b60201c565b60405180602001604052806000815250600890805190602001906200015b92919062000230565b5062000353565b600033905090565b6000600660009054906101000a900473ffffffffffffffffffffffffffffffffffffffff16905081600660006101000a81548173ffffffffffffffffffffffffffffffffffffffff021916908373ffffffffffffffffffffffffffffffffffffffff1602179055508173ffffffffffffffffffffffffffffffffffffffff168173ffffffffffffffffffffffffffffffffffffffff167f8be0079c531659141344cd1fd0a4f28419497f9722a3daafe3b4186f6b6457e060405160405180910390a35050565b8280546200023e90620002ee565b90600052602060002090601f016020900481019282620002625760008555620002ae565b82601f106200027d57805160ff1916838001178555620002ae565b82800160010185558215620002ae579182015b82811115620002ad57825182559160200191906001019062000290565b5b509050620002bd9190620002cf565b5090565b610d09806200383e83390190565b5b80821115620002ea576000816000905550600101620002d0565b5090565b600060028204905060018216806200030757607f821691505b602082108114156200031e576200031d62000324565b5b50919050565b7f4e487b7100000000000000000000000000000000000000000000000000000000600052602260045260246000fd5b60805160601c6134c56200037960003960008181610f5a015261167201526134c56000f3fe6080604052600436106101405760003560e01c8063755edd17116100b6578063c002d23d1161006f578063c002d23d1461044b578063c87b56dd14610476578063d547cfb7146104b3578063e2982c21146104de578063e985e9c51461051b578063f2fde38b1461055857610140565b8063755edd17146103485780638da5cb5b14610378578063902d55a5146103a357806395d89b41146103ce578063a22cb465146103f9578063b88d4fde1461042257610140565b806330176e131161010857806330176e131461023c57806331b3eb941461026557806342842e0e1461028e5780636352211e146102b757806370a08231146102f4578063715018a61461033157610140565b806301ffc9a71461014557806306fdde0314610182578063081812fc146101ad578063095ea7b3146101ea57806323b872dd14610213575b600080fd5b34801561015157600080fd5b5061016c600480360381019061016791906123dd565b610581565b60405161017991906128bd565b60405180910390f35b34801561018e57600080fd5b50610197610663565b6040516101a491906128d8565b60405180910390f35b3480156101b957600080fd5b506101d460048036038101906101cf9190612470565b6106f5565b6040516101e1919061283b565b60405180910390f35b3480156101f657600080fd5b50610211600480360381019061020c91906123a1565b61077a565b005b34801561021f57600080fd5b5061023a6004803603810190610235919061229b565b610892565b005b34801561024857600080fd5b50610263600480360381019061025e919061242f565b6108f2565b005b34801561027157600080fd5b5061028c60048036038101906102879190612236565b610988565b005b34801561029a57600080fd5b506102b560048036038101906102b0919061229b565b610a10565b005b3480156102c357600080fd5b506102de60048036038101906102d99190612470565b610a30565b6040516102eb919061283b565b60405180910390f35b34801561030057600080fd5b5061031b6004803603810190610316919061220d565b610ae2565b6040516103289190612b3a565b60405180910390f35b34801561033d57600080fd5b50610346610b9a565b005b610362600480360381019061035d919061220d565b610c22565b60405161036f9190612b3a565b60405180910390f35b34801561038457600080fd5b5061038d610ce3565b60405161039a919061283b565b60405180910390f35b3480156103af57600080fd5b506103b8610d0d565b6040516103c59190612b3a565b60405180910390f35b3480156103da57600080fd5b506103e3610d12565b6040516103f091906128d8565b60405180910390f35b34801561040557600080fd5b50610420600480360381019061041b9190612365565b610da4565b005b34801561042e57600080fd5b50610449600480360381019061044491906122ea565b610dba565b005b34801561045757600080fd5b50610460610e1c565b60405161046d9190612b3a565b60405180910390f35b34801561048257600080fd5b5061049d60048036038101906104989190612470565b610e21565b6040516104aa91906128d8565b60405180910390f35b3480156104bf57600080fd5b506104c8610ec8565b6040516104d591906128d8565b60405180910390f35b3480156104ea57600080fd5b506105056004803603810190610500919061220d565b610f56565b6040516105129190612b3a565b60405180910390f35b34801561052757600080fd5b50610542600480360381019061053d919061225f565b611008565b60405161054f91906128bd565b60405180910390f35b34801561056457600080fd5b5061057f600480360381019061057a919061220d565b61109c565b005b60007f80ac58cd000000000000000000000000000000000000000000000000000000007bffffffffffffffffffffffffffffffffffffffffffffffffffffffff1916827bffffffffffffffffffffffffffffffffffffffffffffffffffffffff1916148061064c57507f5b5e139f000000000000000000000000000000000000000000000000000000007bffffffffffffffffffffffffffffffffffffffffffffffffffffffff1916827bffffffffffffffffffffffffffffffffffffffffffffffffffffffff1916145b8061065c575061065b82611194565b5b9050919050565b60606000805461067290612da2565b80601f016020809104026020016040519081016040528092919081815260200182805461069e90612da2565b80156106eb5780601f106106c0576101008083540402835291602001916106eb565b820191906000526020600020905b8154815290600101906020018083116106ce57829003601f168201915b5050505050905090565b6000610700826111fe565b61073f576040517f08c379a000000000000000000000000000000000000000000000000000000000815260040161073690612a7a565b60405180910390fd5b6004600083815260200190815260200160002060009054906101000a900473ffffffffffffffffffffffffffffffffffffffff169050919050565b600061078582610a30565b90508073ffffffffffffffffffffffffffffffffffffffff168373ffffffffffffffffffffffffffffffffffffffff1614156107f6576040517f08c379a00000000000000000000000000000000000000000000000000000000081526004016107ed90612ada565b60405180910390fd5b8073ffffffffffffffffffffffffffffffffffffffff1661081561126a565b73ffffffffffffffffffffffffffffffffffffffff16148061084457506108438161083e61126a565b611008565b5b610883576040517f08c379a000000000000000000000000000000000000000000000000000000000815260040161087a906129fa565b60405180910390fd5b61088d8383611272565b505050565b6108a361089d61126a565b8261132b565b6108e2576040517f08c379a00000000000000000000000000000000000000000000000000000000081526004016108d990612afa565b60405180910390fd5b6108ed838383611409565b505050565b6108fa61126a565b73ffffffffffffffffffffffffffffffffffffffff16610918610ce3565b73ffffffffffffffffffffffffffffffffffffffff161461096e576040517f08c379a000000000000000000000000000000000000000000000000000000000815260040161096590612a9a565b60405180910390fd5b8060089080519060200190610984929190612007565b5050565b61099061126a565b73ffffffffffffffffffffffffffffffffffffffff166109ae610ce3565b73ffffffffffffffffffffffffffffffffffffffff1614610a04576040517f08c379a00000000000000000000000000000000000000000000000000000000081526004016109fb90612a9a565b60405180910390fd5b610a0d81611670565b50565b610a2b83838360405180602001604052806000815250610dba565b505050565b6000806002600084815260200190815260200160002060009054906101000a900473ffffffffffffffffffffffffffffffffffffffff169050600073ffffffffffffffffffffffffffffffffffffffff168173ffffffffffffffffffffffffffffffffffffffff161415610ad9576040517f08c379a0000000000000000000000000000000000000000000000000000000008152600401610ad090612a3a565b60405180910390fd5b80915050919050565b60008073ffffffffffffffffffffffffffffffffffffffff168273ffffffffffffffffffffffffffffffffffffffff161415610b53576040517f08c379a0000000000000000000000000000000000000000000000000000000008152600401610b4a90612a1a565b60405180910390fd5b600360008373ffffffffffffffffffffffffffffffffffffffff1673ffffffffffffffffffffffffffffffffffffffff168152602001908152602001600020549050919050565b610ba261126a565b73ffffffffffffffffffffffffffffffffffffffff16610bc0610ce3565b73ffffffffffffffffffffffffffffffffffffffff1614610c16576040517f08c379a0000000000000000000000000000000000000000000000000000000008152600401610c0d90612a9a565b60405180910390fd5b610c2060006116fe565b565b600080610c2f60076117c4565b905060028110610c74576040517f08c379a0000000000000000000000000000000000000000000000000000000008152600401610c6b90612b1a565b60405180910390fd5b60003414610cb7576040517f08c379a0000000000000000000000000000000000000000000000000000000008152600401610cae906129ba565b60405180910390fd5b610cc160076117d2565b6000610ccd60076117c4565b9050610cd984826117e8565b8092505050919050565b6000600660009054906101000a900473ffffffffffffffffffffffffffffffffffffffff16905090565b600281565b606060018054610d2190612da2565b80601f0160208091040260200160405190810160405280929190818152602001828054610d4d90612da2565b8015610d9a5780601f10610d6f57610100808354040283529160200191610d9a565b820191906000526020600020905b815481529060010190602001808311610d7d57829003601f168201915b5050505050905090565b610db6610daf61126a565b8383611806565b5050565b610dcb610dc561126a565b8361132b565b610e0a576040517f08c379a0000000000000000000000000000000000000000000000000000000008152600401610e0190612afa565b60405180910390fd5b610e1684848484611973565b50505050565b600081565b6060610e2c826111fe565b610e6b576040517f08c379a0000000000000000000000000000000000000000000000000000000008152600401610e6290612aba565b60405180910390fd5b6000610e756119cf565b90506000815111610e955760405180602001604052806000815250610ec0565b80610e9f84611a61565b604051602001610eb0929190612817565b6040516020818303038152906040525b915050919050565b60088054610ed590612da2565b80601f0160208091040260200160405190810160405280929190818152602001828054610f0190612da2565b8015610f4e5780601f10610f2357610100808354040283529160200191610f4e565b820191906000526020600020905b815481529060010190602001808311610f3157829003601f168201915b505050505081565b60007f000000000000000000000000000000000000000000000000000000000000000073ffffffffffffffffffffffffffffffffffffffff1663e3a9db1a836040518263ffffffff1660e01b8152600401610fb1919061283b565b60206040518083038186803b158015610fc957600080fd5b505afa158015610fdd573d6000803e3d6000fd5b505050506040513d601f19601f820116820180604052508101906110019190612499565b9050919050565b6000600560008473ffffffffffffffffffffffffffffffffffffffff1673ffffffffffffffffffffffffffffffffffffffff16815260200190815260200160002060008373ffffffffffffffffffffffffffffffffffffffff1673ffffffffffffffffffffffffffffffffffffffff16815260200190815260200160002060009054906101000a900460ff16905092915050565b6110a461126a565b73ffffffffffffffffffffffffffffffffffffffff166110c2610ce3565b73ffffffffffffffffffffffffffffffffffffffff1614611118576040517f08c379a000000000000000000000000000000000000000000000000000000000815260040161110f90612a9a565b60405180910390fd5b600073ffffffffffffffffffffffffffffffffffffffff168173ffffffffffffffffffffffffffffffffffffffff161415611188576040517f08c379a000000000000000000000000000000000000000000000000000000000815260040161117f9061291a565b60405180910390fd5b611191816116fe565b50565b60007f01ffc9a7000000000000000000000000000000000000000000000000000000007bffffffffffffffffffffffffffffffffffffffffffffffffffffffff1916827bffffffffffffffffffffffffffffffffffffffffffffffffffffffff1916149050919050565b60008073ffffffffffffffffffffffffffffffffffffffff166002600084815260200190815260200160002060009054906101000a900473ffffffffffffffffffffffffffffffffffffffff1673ffffffffffffffffffffffffffffffffffffffff1614159050919050565b600033905090565b816004600083815260200190815260200160002060006101000a81548173ffffffffffffffffffffffffffffffffffffffff021916908373ffffffffffffffffffffffffffffffffffffffff160217905550808273ffffffffffffffffffffffffffffffffffffffff166112e583610a30565b73ffffffffffffffffffffffffffffffffffffffff167f8c5be1e5ebec7d5bd14f71427d1e84f3dd0314c0f7b2291e5b200ac8c7c3b92560405160405180910390a45050565b6000611336826111fe565b611375576040517f08c379a000000000000000000000000000000000000000000000000000000000815260040161136c906129da565b60405180910390fd5b600061138083610a30565b90508073ffffffffffffffffffffffffffffffffffffffff168473ffffffffffffffffffffffffffffffffffffffff1614806113c257506113c18185611008565b5b8061140057508373ffffffffffffffffffffffffffffffffffffffff166113e8846106f5565b73ffffffffffffffffffffffffffffffffffffffff16145b91505092915050565b8273ffffffffffffffffffffffffffffffffffffffff1661142982610a30565b73ffffffffffffffffffffffffffffffffffffffff161461147f576040517f08c379a00000000000000000000000000000000000000000000000000000000081526004016114769061293a565b60405180910390fd5b600073ffffffffffffffffffffffffffffffffffffffff168273ffffffffffffffffffffffffffffffffffffffff1614156114ef576040517f08c379a00000000000000000000000000000000000000000000000000000000081526004016114e69061297a565b60405180910390fd5b6114fa838383611c0e565b611505600082611272565b6001600360008573ffffffffffffffffffffffffffffffffffffffff1673ffffffffffffffffffffffffffffffffffffffff16815260200190815260200160002060008282546115559190612ca6565b925050819055506001600360008473ffffffffffffffffffffffffffffffffffffffff1673ffffffffffffffffffffffffffffffffffffffff16815260200190815260200160002060008282546115ac9190612c1f565b92505081905550816002600083815260200190815260200160002060006101000a81548173ffffffffffffffffffffffffffffffffffffffff021916908373ffffffffffffffffffffffffffffffffffffffff160217905550808273ffffffffffffffffffffffffffffffffffffffff168473ffffffffffffffffffffffffffffffffffffffff167fddf252ad1be2c89b69c2b068fc378daa952ba7f163c4a11628f55a4df523b3ef60405160405180910390a461166b838383611c13565b505050565b7f000000000000000000000000000000000000000000000000000000000000000073ffffffffffffffffffffffffffffffffffffffff166351cff8d9826040518263ffffffff1660e01b81526004016116c99190612856565b600060405180830381600087803b1580156116e357600080fd5b505af11580156116f7573d6000803e3d6000fd5b5050505050565b6000600660009054906101000a900473ffffffffffffffffffffffffffffffffffffffff16905081600660006101000a81548173ffffffffffffffffffffffffffffffffffffffff021916908373ffffffffffffffffffffffffffffffffffffffff1602179055508173ffffffffffffffffffffffffffffffffffffffff168173ffffffffffffffffffffffffffffffffffffffff167f8be0079c531659141344cd1fd0a4f28419497f9722a3daafe3b4186f6b6457e060405160405180910390a35050565b600081600001549050919050565b6001816000016000828254019250508190555050565b611802828260405180602001604052806000815250611c18565b5050565b8173ffffffffffffffffffffffffffffffffffffffff168373ffffffffffffffffffffffffffffffffffffffff161415611875576040517f08c379a000000000000000000000000000000000000000000000000000000000815260040161186c9061299a565b60405180910390fd5b80600560008573ffffffffffffffffffffffffffffffffffffffff1673ffffffffffffffffffffffffffffffffffffffff16815260200190815260200160002060008473ffffffffffffffffffffffffffffffffffffffff1673ffffffffffffffffffffffffffffffffffffffff16815260200190815260200160002060006101000a81548160ff0219169083151502179055508173ffffffffffffffffffffffffffffffffffffffff168373ffffffffffffffffffffffffffffffffffffffff167f17307eab39ab6107e8899845ad3d59bd9653f200f220920489ca2b5937696c318360405161196691906128bd565b60405180910390a3505050565b61197e848484611409565b61198a84848484611c73565b6119c9576040517f08c379a00000000000000000000000000000000000000000000000000000000081526004016119c0906128fa565b60405180910390fd5b50505050565b6060600880546119de90612da2565b80601f0160208091040260200160405190810160405280929190818152602001828054611a0a90612da2565b8015611a575780601f10611a2c57610100808354040283529160200191611a57565b820191906000526020600020905b815481529060010190602001808311611a3a57829003601f168201915b5050505050905090565b60606000821415611aa9576040518060400160405280600181526020017f30000000000000000000000000000000000000000000000000000000000000008152509050611c09565b600082905060005b60008214611adb578080611ac490612e05565b915050600a82611ad49190612c75565b9150611ab1565b60008167ffffffffffffffff811115611b1d577f4e487b7100000000000000000000000000000000000000000000000000000000600052604160045260246000fd5b6040519080825280601f01601f191660200182016040528015611b4f5781602001600182028036833780820191505090505b5090505b60008514611c0257600182611b689190612ca6565b9150600a85611b779190612e4e565b6030611b839190612c1f565b60f81b818381518110611bbf577f4e487b7100000000000000000000000000000000000000000000000000000000600052603260045260246000fd5b60200101907effffffffffffffffffffffffffffffffffffffffffffffffffffffffffffff1916908160001a905350600a85611bfb9190612c75565b9450611b53565b8093505050505b919050565b505050565b505050565b611c228383611e0a565b611c2f6000848484611c73565b611c6e576040517f08c379a0000000000000000000000000000000000000000000000000000000008152600401611c65906128fa565b60405180910390fd5b505050565b6000611c948473ffffffffffffffffffffffffffffffffffffffff16611fe4565b15611dfd578373ffffffffffffffffffffffffffffffffffffffff1663150b7a02611cbd61126a565b8786866040518563ffffffff1660e01b8152600401611cdf9493929190612871565b602060405180830381600087803b158015611cf957600080fd5b505af1925050508015611d2a57506040513d601f19601f82011682018060405250810190611d279190612406565b60015b611dad573d8060008114611d5a576040519150601f19603f3d011682016040523d82523d6000602084013e611d5f565b606091505b50600081511415611da5576040517f08c379a0000000000000000000000000000000000000000000000000000000008152600401611d9c906128fa565b60405180910390fd5b805181602001fd5b63150b7a0260e01b7bffffffffffffffffffffffffffffffffffffffffffffffffffffffff1916817bffffffffffffffffffffffffffffffffffffffffffffffffffffffff191614915050611e02565b600190505b949350505050565b600073ffffffffffffffffffffffffffffffffffffffff168273ffffffffffffffffffffffffffffffffffffffff161415611e7a576040517f08c379a0000000000000000000000000000000000000000000000000000000008152600401611e7190612a5a565b60405180910390fd5b611e83816111fe565b15611ec3576040517f08c379a0000000000000000000000000000000000000000000000000000000008152600401611eba9061295a565b60405180910390fd5b611ecf60008383611c0e565b6001600360008473ffffffffffffffffffffffffffffffffffffffff1673ffffffffffffffffffffffffffffffffffffffff1681526020019081526020016000206000828254611f1f9190612c1f565b92505081905550816002600083815260200190815260200160002060006101000a81548173ffffffffffffffffffffffffffffffffffffffff021916908373ffffffffffffffffffffffffffffffffffffffff160217905550808273ffffffffffffffffffffffffffffffffffffffff16600073ffffffffffffffffffffffffffffffffffffffff167fddf252ad1be2c89b69c2b068fc378daa952ba7f163c4a11628f55a4df523b3ef60405160405180910390a4611fe060008383611c13565b5050565b6000808273ffffffffffffffffffffffffffffffffffffffff163b119050919050565b82805461201390612da2565b90600052602060002090601f016020900481019282612035576000855561207c565b82601f1061204e57805160ff191683800117855561207c565b8280016001018555821561207c579182015b8281111561207b578251825591602001919060010190612060565b5b509050612089919061208d565b5090565b5b808211156120a657600081600090555060010161208e565b5090565b60006120bd6120b884612b7a565b612b55565b9050828152602081018484840111156120d557600080fd5b6120e0848285612d60565b509392505050565b60006120fb6120f684612bab565b612b55565b90508281526020810184848401111561211357600080fd5b61211e848285612d60565b509392505050565b6000813590506121358161341c565b92915050565b60008135905061214a81613433565b92915050565b60008135905061215f8161344a565b92915050565b60008135905061217481613461565b92915050565b60008151905061218981613461565b92915050565b600082601f8301126121a057600080fd5b81356121b08482602086016120aa565b91505092915050565b600082601f8301126121ca57600080fd5b81356121da8482602086016120e8565b91505092915050565b6000813590506121f281613478565b92915050565b60008151905061220781613478565b92915050565b60006020828403121561221f57600080fd5b600061222d84828501612126565b91505092915050565b60006020828403121561224857600080fd5b60006122568482850161213b565b91505092915050565b6000806040838503121561227257600080fd5b600061228085828601612126565b925050602061229185828601612126565b9150509250929050565b6000806000606084860312156122b057600080fd5b60006122be86828701612126565b93505060206122cf86828701612126565b92505060406122e0868287016121e3565b9150509250925092565b6000806000806080858703121561230057600080fd5b600061230e87828801612126565b945050602061231f87828801612126565b9350506040612330878288016121e3565b925050606085013567ffffffffffffffff81111561234d57600080fd5b6123598782880161218f565b91505092959194509250565b6000806040838503121561237857600080fd5b600061238685828601612126565b925050602061239785828601612150565b9150509250929050565b600080604083850312156123b457600080fd5b60006123c285828601612126565b92505060206123d3858286016121e3565b9150509250929050565b6000602082840312156123ef57600080fd5b60006123fd84828501612165565b91505092915050565b60006020828403121561241857600080fd5b60006124268482850161217a565b91505092915050565b60006020828403121561244157600080fd5b600082013567ffffffffffffffff81111561245b57600080fd5b612467848285016121b9565b91505092915050565b60006020828403121561248257600080fd5b6000612490848285016121e3565b91505092915050565b6000602082840312156124ab57600080fd5b60006124b9848285016121f8565b91505092915050565b6124cb81612cec565b82525050565b6124da81612cda565b82525050565b6124e981612cfe565b82525050565b60006124fa82612bdc565b6125048185612bf2565b9350612514818560208601612d6f565b61251d81612f3b565b840191505092915050565b600061253382612be7565b61253d8185612c03565b935061254d818560208601612d6f565b61255681612f3b565b840191505092915050565b600061256c82612be7565b6125768185612c14565b9350612586818560208601612d6f565b80840191505092915050565b600061259f603283612c03565b91506125aa82612f4c565b604082019050919050565b60006125c2602683612c03565b91506125cd82612f9b565b604082019050919050565b60006125e5602583612c03565b91506125f082612fea565b604082019050919050565b6000612608601c83612c03565b915061261382613039565b602082019050919050565b600061262b602483612c03565b915061263682613062565b604082019050919050565b600061264e601983612c03565b9150612659826130b1565b602082019050919050565b6000612671602e83612c03565b915061267c826130da565b604082019050919050565b6000612694602c83612c03565b915061269f82613129565b604082019050919050565b60006126b7603883612c03565b91506126c282613178565b604082019050919050565b60006126da602a83612c03565b91506126e5826131c7565b604082019050919050565b60006126fd602983612c03565b915061270882613216565b604082019050919050565b6000612720602083612c03565b915061272b82613265565b602082019050919050565b6000612743602c83612c03565b915061274e8261328e565b604082019050919050565b6000612766602083612c03565b9150612771826132dd565b602082019050919050565b6000612789602f83612c03565b915061279482613306565b604082019050919050565b60006127ac602183612c03565b91506127b782613355565b604082019050919050565b60006127cf603183612c03565b91506127da826133a4565b604082019050919050565b60006127f2601283612c03565b91506127fd826133f3565b602082019050919050565b61281181612d56565b82525050565b60006128238285612561565b915061282f8284612561565b91508190509392505050565b600060208201905061285060008301846124d1565b92915050565b600060208201905061286b60008301846124c2565b92915050565b600060808201905061288660008301876124d1565b61289360208301866124d1565b6128a06040830185612808565b81810360608301526128b281846124ef565b905095945050505050565b60006020820190506128d260008301846124e0565b92915050565b600060208201905081810360008301526128f28184612528565b905092915050565b6000602082019050818103600083015261291381612592565b9050919050565b60006020820190508181036000830152612933816125b5565b9050919050565b60006020820190508181036000830152612953816125d8565b9050919050565b60006020820190508181036000830152612973816125fb565b9050919050565b600060208201905081810360008301526129938161261e565b9050919050565b600060208201905081810360008301526129b381612641565b9050919050565b600060208201905081810360008301526129d381612664565b9050919050565b600060208201905081810360008301526129f381612687565b9050919050565b60006020820190508181036000830152612a13816126aa565b9050919050565b60006020820190508181036000830152612a33816126cd565b9050919050565b60006020820190508181036000830152612a53816126f0565b9050919050565b60006020820190508181036000830152612a7381612713565b9050919050565b60006020820190508181036000830152612a9381612736565b9050919050565b60006020820190508181036000830152612ab381612759565b9050919050565b60006020820190508181036000830152612ad38161277c565b9050919050565b60006020820190508181036000830152612af38161279f565b9050919050565b60006020820190508181036000830152612b13816127c2565b9050919050565b60006020820190508181036000830152612b33816127e5565b9050919050565b6000602082019050612b4f6000830184612808565b92915050565b6000612b5f612b70565b9050612b6b8282612dd4565b919050565b6000604051905090565b600067ffffffffffffffff821115612b9557612b94612f0c565b5b612b9e82612f3b565b9050602081019050919050565b600067ffffffffffffffff821115612bc657612bc5612f0c565b5b612bcf82612f3b565b9050602081019050919050565b600081519050919050565b600081519050919050565b600082825260208201905092915050565b600082825260208201905092915050565b600081905092915050565b6000612c2a82612d56565b9150612c3583612d56565b9250827fffffffffffffffffffffffffffffffffffffffffffffffffffffffffffffffff03821115612c6a57612c69612e7f565b5b828201905092915050565b6000612c8082612d56565b9150612c8b83612d56565b925082612c9b57612c9a612eae565b5b828204905092915050565b6000612cb182612d56565b9150612cbc83612d56565b925082821015612ccf57612cce612e7f565b5b828203905092915050565b6000612ce582612d36565b9050919050565b6000612cf782612d36565b9050919050565b60008115159050919050565b60007fffffffff0000000000000000000000000000000000000000000000000000000082169050919050565b600073ffffffffffffffffffffffffffffffffffffffff82169050919050565b6000819050919050565b82818337600083830152505050565b60005b83811015612d8d578082015181840152602081019050612d72565b83811115612d9c576000848401525b50505050565b60006002820490506001821680612dba57607f821691505b60208210811415612dce57612dcd612edd565b5b50919050565b612ddd82612f3b565b810181811067ffffffffffffffff82111715612dfc57612dfb612f0c565b5b80604052505050565b6000612e1082612d56565b91507fffffffffffffffffffffffffffffffffffffffffffffffffffffffffffffffff821415612e4357612e42612e7f565b5b600182019050919050565b6000612e5982612d56565b9150612e6483612d56565b925082612e7457612e73612eae565b5b828206905092915050565b7f4e487b7100000000000000000000000000000000000000000000000000000000600052601160045260246000fd5b7f4e487b7100000000000000000000000000000000000000000000000000000000600052601260045260246000fd5b7f4e487b7100000000000000000000000000000000000000000000000000000000600052602260045260246000fd5b7f4e487b7100000000000000000000000000000000000000000000000000000000600052604160045260246000fd5b6000601f19601f8301169050919050565b7f4552433732313a207472616e7366657220746f206e6f6e20455243373231526560008201527f63656976657220696d706c656d656e7465720000000000000000000000000000602082015250565b7f4f776e61626c653a206e6577206f776e657220697320746865207a65726f206160008201527f6464726573730000000000000000000000000000000000000000000000000000602082015250565b7f4552433732313a207472616e736665722066726f6d20696e636f72726563742060008201527f6f776e6572000000000000000000000000000000000000000000000000000000602082015250565b7f4552433732313a20746f6b656e20616c7265616479206d696e74656400000000600082015250565b7f4552433732313a207472616e7366657220746f20746865207a65726f2061646460008201527f7265737300000000000000000000000000000000000000000000000000000000602082015250565b7f4552433732313a20617070726f766520746f2063616c6c657200000000000000600082015250565b7f5472616e73616374696f6e2076616c756520646964206e6f7420657175616c2060008201527f746865206d696e74207072696365000000000000000000000000000000000000602082015250565b7f4552433732313a206f70657261746f7220717565727920666f72206e6f6e657860008201527f697374656e7420746f6b656e0000000000000000000000000000000000000000602082015250565b7f4552433732313a20617070726f76652063616c6c6572206973206e6f74206f7760008201527f6e6572206e6f7220617070726f76656420666f7220616c6c0000000000000000602082015250565b7f4552433732313a2062616c616e636520717565727920666f7220746865207a6560008201527f726f206164647265737300000000000000000000000000000000000000000000602082015250565b7f4552433732313a206f776e657220717565727920666f72206e6f6e657869737460008201527f656e7420746f6b656e0000000000000000000000000000000000000000000000602082015250565b7f4552433732313a206d696e7420746f20746865207a65726f2061646472657373600082015250565b7f4552433732313a20617070726f76656420717565727920666f72206e6f6e657860008201527f697374656e7420746f6b656e0000000000000000000000000000000000000000602082015250565b7f4f776e61626c653a2063616c6c6572206973206e6f7420746865206f776e6572600082015250565b7f4552433732314d657461646174613a2055524920717565727920666f72206e6f60008201527f6e6578697374656e7420746f6b656e0000000000000000000000000000000000602082015250565b7f4552433732313a20617070726f76616c20746f2063757272656e74206f776e6560008201527f7200000000000000000000000000000000000000000000000000000000000000602082015250565b7f4552433732313a207472616e736665722063616c6c6572206973206e6f74206f60008201527f776e6572206e6f7220617070726f766564000000000000000000000000000000602082015250565b7f4d617820737570706c7920726561636865640000000000000000000000000000600082015250565b61342581612cda565b811461343057600080fd5b50565b61343c81612cec565b811461344757600080fd5b50565b61345381612cfe565b811461345e57600080fd5b50565b61346a81612d0a565b811461347557600080fd5b50565b61348181612d56565b811461348c57600080fd5b5056fea2646970667358221220dcd83624460ad5977031c2e25f4863668cc6a892b24544e9beedf4fd35cc5e0164736f6c63430008010033608060405234801561001057600080fd5b5061002d61002261003260201b60201c565b61003a60201b60201c565b6100fe565b600033905090565b60008060009054906101000a900473ffffffffffffffffffffffffffffffffffffffff169050816000806101000a81548173ffffffffffffffffffffffffffffffffffffffff021916908373ffffffffffffffffffffffffffffffffffffffff1602179055508173ffffffffffffffffffffffffffffffffffffffff168173ffffffffffffffffffffffffffffffffffffffff167f8be0079c531659141344cd1fd0a4f28419497f9722a3daafe3b4186f6b6457e060405160405180910390a35050565b610bfc8061010d6000396000f3fe6080604052600436106100555760003560e01c806351cff8d91461005a578063715018a6146100835780638da5cb5b1461009a578063e3a9db1a146100c5578063f2fde38b14610102578063f340fa011461012b575b600080fd5b34801561006657600080fd5b50610081600480360381019061007c91906107f5565b610147565b005b34801561008f57600080fd5b506100986102c7565b005b3480156100a657600080fd5b506100af61034f565b6040516100bc9190610900565b60405180910390f35b3480156100d157600080fd5b506100ec60048036038101906100e791906107cc565b610378565b6040516100f9919061099b565b60405180910390f35b34801561010e57600080fd5b50610129600480360381019061012491906107cc565b6103c1565b005b610145600480360381019061014091906107cc565b6104b9565b005b61014f6105e2565b73ffffffffffffffffffffffffffffffffffffffff1661016d61034f565b73ffffffffffffffffffffffffffffffffffffffff16146101c3576040517f08c379a00000000000000000000000000000000000000000000000000000000081526004016101ba9061097b565b60405180910390fd5b6000600160008373ffffffffffffffffffffffffffffffffffffffff1673ffffffffffffffffffffffffffffffffffffffff1681526020019081526020016000205490506000600160008473ffffffffffffffffffffffffffffffffffffffff1673ffffffffffffffffffffffffffffffffffffffff16815260200190815260200160002081905550610275818373ffffffffffffffffffffffffffffffffffffffff166105ea90919063ffffffff16565b8173ffffffffffffffffffffffffffffffffffffffff167f7084f5476618d8e60b11ef0d7d3f06914655adb8793e28ff7f018d4c76d505d5826040516102bb919061099b565b60405180910390a25050565b6102cf6105e2565b73ffffffffffffffffffffffffffffffffffffffff166102ed61034f565b73ffffffffffffffffffffffffffffffffffffffff1614610343576040517f08c379a000000000000000000000000000000000000000000000000000000000815260040161033a9061097b565b60405180910390fd5b61034d60006106de565b565b60008060009054906101000a900473ffffffffffffffffffffffffffffffffffffffff16905090565b6000600160008373ffffffffffffffffffffffffffffffffffffffff1673ffffffffffffffffffffffffffffffffffffffff168152602001908152602001600020549050919050565b6103c96105e2565b73ffffffffffffffffffffffffffffffffffffffff166103e761034f565b73ffffffffffffffffffffffffffffffffffffffff161461043d576040517f08c379a00000000000000000000000000000000000000000000000000000000081526004016104349061097b565b60405180910390fd5b600073ffffffffffffffffffffffffffffffffffffffff168173ffffffffffffffffffffffffffffffffffffffff1614156104ad576040517f08c379a00000000000000000000000000000000000000000000000000000000081526004016104a49061091b565b60405180910390fd5b6104b6816106de565b50565b6104c16105e2565b73ffffffffffffffffffffffffffffffffffffffff166104df61034f565b73ffffffffffffffffffffffffffffffffffffffff1614610535576040517f08c379a000000000000000000000000000000000000000000000000000000000815260040161052c9061097b565b60405180910390fd5b600034905080600160008473ffffffffffffffffffffffffffffffffffffffff1673ffffffffffffffffffffffffffffffffffffffff168152602001908152602001600020600082825461058991906109d2565b925050819055508173ffffffffffffffffffffffffffffffffffffffff167f2da466a7b24304f47e87fa2e1e5a81b9831ce54fec19055ce277ca2f39ba42c4826040516105d6919061099b565b60405180910390a25050565b600033905090565b8047101561062d576040517f08c379a00000000000000000000000000000000000000000000000000000000081526004016106249061095b565b60405180910390fd5b60008273ffffffffffffffffffffffffffffffffffffffff1682604051610653906108eb565b60006040518083038185875af1925050503d8060008114610690576040519150601f19603f3d011682016040523d82523d6000602084013e610695565b606091505b50509050806106d9576040517f08c379a00000000000000000000000000000000000000000000000000000000081526004016106d09061093b565b60405180910390fd5b505050565b60008060009054906101000a900473ffffffffffffffffffffffffffffffffffffffff169050816000806101000a81548173ffffffffffffffffffffffffffffffffffffffff021916908373ffffffffffffffffffffffffffffffffffffffff1602179055508173ffffffffffffffffffffffffffffffffffffffff168173ffffffffffffffffffffffffffffffffffffffff167f8be0079c531659141344cd1fd0a4f28419497f9722a3daafe3b4186f6b6457e060405160405180910390a35050565b6000813590506107b181610b98565b92915050565b6000813590506107c681610baf565b92915050565b6000602082840312156107de57600080fd5b60006107ec848285016107a2565b91505092915050565b60006020828403121561080757600080fd5b6000610815848285016107b7565b91505092915050565b61082781610a28565b82525050565b600061083a6026836109c1565b915061084582610aa5565b604082019050919050565b600061085d603a836109c1565b915061086882610af4565b604082019050919050565b6000610880601d836109c1565b915061088b82610b43565b602082019050919050565b60006108a36020836109c1565b91506108ae82610b6c565b602082019050919050565b60006108c66000836109b6565b91506108d182610b95565b600082019050919050565b6108e581610a6c565b82525050565b60006108f6826108b9565b9150819050919050565b6000602082019050610915600083018461081e565b92915050565b600060208201905081810360008301526109348161082d565b9050919050565b6000602082019050818103600083015261095481610850565b9050919050565b6000602082019050818103600083015261097481610873565b9050919050565b6000602082019050818103600083015261099481610896565b9050919050565b60006020820190506109b060008301846108dc565b92915050565b600081905092915050565b600082825260208201905092915050565b60006109dd82610a6c565b91506109e883610a6c565b9250827fffffffffffffffffffffffffffffffffffffffffffffffffffffffffffffffff03821115610a1d57610a1c610a76565b5b828201905092915050565b6000610a3382610a4c565b9050919050565b6000610a4582610a4c565b9050919050565b600073ffffffffffffffffffffffffffffffffffffffff82169050919050565b6000819050919050565b7f4e487b7100000000000000000000000000000000000000000000000000000000600052601160045260246000fd5b7f4f776e61626c653a206e6577206f776e657220697320746865207a65726f206160008201527f6464726573730000000000000000000000000000000000000000000000000000602082015250565b7f416464726573733a20756e61626c6520746f2073656e642076616c75652c207260008201527f6563697069656e74206d61792068617665207265766572746564000000000000602082015250565b7f416464726573733a20696e73756666696369656e742062616c616e6365000000600082015250565b7f4f776e61626c653a2063616c6c6572206973206e6f7420746865206f776e6572600082015250565b50565b610ba181610a28565b8114610bac57600080fd5b50565b610bb881610a3a565b8114610bc357600080fd5b5056fea264697066735822122073b307195fd92b28f2600edbbb914776573abe0392628b3f8a5ee2d6ab956cfa64736f6c63430008010033",
  "linkReferences": {},
  "deployedLinkReferences": {}
}